:100000005DC0000080C000007EC000007CC0000019
:100010007AC0000078C0000076C0000074C0000004
:1000200072C0000070C000006EC000006CC0000014
:100030006AC0000068C0000066C0000064C0000024
:10004000E6C1000060C0000034C1000064C10000CF
:100050005AC0000058C0000056C0000054C0000044
:1000600052C0000050C00000000000080002010063
:100070000003040700000000000000000102040863
:100080001020408001020408102001020408102002
:10009000040404040404040402020202020203032E
:1000A0000303030300000000250028002B000000CC
:1000B0000000240027002A003601B90111241FBEC8
:1000C000CFEFD8E0DEBFCDBF11E0A0E0B1E0E0E9C6
:1000D000FFE002C005900D92AA31B107D9F723E0E5
:1000E000AAE1B1E001C01D92A532B207E1F710E02C
:1000F000CCEBD0E003C02297FE01F1D5C83BD1077D
:10010000D1F77BD143C77CCF0F93CF93DF93E90126
:1001100080910601882361F0109206010AE02AE02E
:1001200040E060E070E081E291E0EAD42AE00CC0B7
:1001300081E08093060100E020E040E060E070E0B4
:1001400081E291E0DDD420E040E061E070E081E216
:1001500091E0D6D481E291E023D481E08093200124
:10016000CE01E8D690931F0180931E01DF91CF91BD
:100170000F910895EF92FF920F931F9381E391E007
:1001800004D481E291E001D482E0E82EF12C01E474
:1001900011E020E032EC41E050E06091070187EE91
:1001A00091E054D344E850E063E587EE91E09FD3BB
:1001B00081E391E0F5D30AE02AE040E060E070E0FE
:1001C00081E291E09DD42AE040E061E070E081E2CC
:1001D00091E096D481E291E01F910F91FF90EF9012
:1001E000DFC30F93CF93DF93C0E0D0E000E020E0C7
:1001F00040E0BE0181E391E083D42196C639D10568
:10020000A9F7DF91CF910F9108950F93809120016D
:10021000882351F1E6DF80911E0190911F0120910A
:100220001C0130911D0128173907D4F420911A01BF
:1002300030911B01821793079CF4209107013091A4
:1002400008014AE6429FB001439F700D721B1124C2
:10025000680F791F0EE120E04EE181E391E050D478
:1002600081E391E00F919CC30F91089523E049E051
:1002700066E970E081E391E052D323E04FE062E071
:1002800070E081E291E04BD32091070130910801A9
:1002900046E9429FC001439F900D112490931D0198
:1002A00080931C018B569F4F90931B0180931A01E2
:1002B00008951F920F920FB60F9211242F938F93D0
:1002C0009F93EF93FF93E0915101F0915201808150
:1002D000E0915701F091580182FD12C09081809108
:1002E0005A018F5F8F7320915B01821751F0E0916B
:1002F0005A01F0E0EF5BFE4F958F80935A0101C0E9
:100300008081FF91EF919F918F912F910F900FBE60
:100310000F901F9018951F920F920FB60F921124F5
:100320002F933F934F935F936F937F938F939F93FD
:10033000AF93BF93EF93FF9381E491E04AD1FF9194
:10034000EF91BF91AF919F918F917F916F915F914D
:100350004F913F912F910F900FBE0F901F901895C6
:1003600081E491E0FCD021E0892B09F420E0822F88
:100370000895109244011092430188EE93E0A0E0AA
:10038000B0E08093450190934601A0934701B0935C
:1003900048018DE091E0909342018093410185EC0A
:1003A00090E090934E0180934D0184EC90E0909307
:1003B000500180934F0180EC90E090935201809324
:1003C000510181EC90E0909354018093530182ECB1
:1003D00090E0909356018093550186EC90E09093C5
:1003E00058018093570110925A0110925B011092AC
:1003F0005C0110925D010895089576D0FDDFBADEAC
:10040000CCEDD2E002DF2097E9F3D6D0FBCF1F92EC
:100410000F920FB60F9211242F933F938F939F93B8
:10042000AF93BF938091DF019091E001A091E10132
:10043000B091E2013091DE0123E0230F2D3720F44B
:100440000196A11DB11D05C026E8230F0296A11D2E
:10045000B11D2093DE018093DF019093E001A09312
:10046000E101B093E2018091E3019091E401A09158
:10047000E501B091E6010196A11DB11D8093E30154
:100480009093E401A093E501B093E601BF91AF9191
:100490009F918F913F912F910F900FBE0F901F90C2
:1004A00018953FB7F8948091E3019091E401A091F1
:1004B000E501B091E60126B5A89B05C02F3F19F0D4
:1004C0000196A11DB11D3FBF6627782F892F9A2F56
:1004D000620F711D811D911D42E0660F771F881FFD
:1004E000991F4A95D1F70895789484B5826084BDA8
:1004F00084B5816084BD85B5826085BD85B5816028
:1005000085BDEEE6F0E0808181608083E1E8F0E087
:100510001082808182608083808181608083E0E8B6
:10052000F0E0808181608083E1EBF0E08081846095
:100530008083E0EBF0E0808181608083EAE7F0E097
:1005400080818460808380818260808380818160FB
:1005500080838081806880831092C1000895FC01AF
:10056000818D228D90E0805C9F4F821B91098F735B
:1005700099270895FC01918D828D981731F0828D15
:10058000E80FF11D858D90E008958FEF9FEF08959E
:10059000FC01918D828D981761F0828DDF01A80F8B
:1005A000B11D5D968C91928D9F5F9F73928F90E0AD
:1005B00008958FEF9FEF089580EB91E0892B41F034
:1005C00080E090E0892B21F0CBDE81110C940000BB
:1005D0000895FC01848DDF01A80FB11DA35ABF4F00
:1005E0002C91848D90E001968F739927848FA68932
:1005F000B7892C93A089B1898C9180648C93938D59
:10060000848D981306C00288F389E02D80818F7D48
:1006100080830895CF93DF93EC01888D8823C1F008
:10062000EA89FB89808185FD05C0A889B9898C91FB
:1006300086FD0EC00FB607FCF5CF808185FFF2CF97
:10064000A889B9898C9185FFEDCFCE01C2DFE8CFB3
:10065000DF91CF910895CF92DF92FF920F931F9376
:10066000CF93DF931F92CDB7DEB76C01DC015B96B1
:100670009C915B975C968C915C97981307C0509601
:10068000ED91FC915197808185FD31C0F601038D7C
:1006900010E00F5F1F4F0F731127F02EF601848DAE
:1006A000F81210C00FB607FCF9CFD6015096ED91A5
:1006B000FC915197808185FFF1CFC601698389DF65
:1006C0006981ECCF838DE80FF11DE35AFF4F608302
:1006D000D6015B960C935B975296ED91FC915397E4
:1006E00080818062808381E058968C930DC0D60112
:1006F0005696ED91FC91579760835096ED91FC9141
:10070000519780818064808381E090E00F90DF9139
:10071000CF911F910F91FF90DF90CF900895BF92DE
:10072000CF92DF92EF92FF92CF93DF93EC016A01B9
:100730007B01B22EE889F98982E08083411581EE40
:1007400058076105710599F060E079E08DE390E06C
:10075000A7019601A0D221503109410951095695AE
:10076000479537952795211580E1380790F0E8895E
:10077000F989108260E874E88EE190E0A7019601A3
:100780008AD221503109410951095695479537952B
:100790002795EC85FD853083EE85FF852083188EB7
:1007A000EC89FD89B082EA89FB8980818061808340
:1007B000EA89FB89808188608083EA89FB8980815E
:1007C00080688083EA89FB8980818F7D8083DF91C7
:1007D000CF91FF90EF90DF90CF90BF900895CF9290
:1007E000DF92EF92FF920F931F93CF93DF936C01F1
:1007F0007A01EB01E60EF71E00E010E0CE15DF05F2
:1008000061F06991D601ED91FC910190F081E02DAC
:10081000C6010995080F191FF1CFC801DF91CF91CB
:100820001F910F91FF90EF90DF90CF900895FC0102
:10083000ED5DFE4F10823196108232961082319714
:100840001082349610823196108208958F929F9272
:10085000AF92BF92DF92EF92FF920F931F93CF93CD
:10086000DF93EC01D62E49015A01C801FE01EE5C6E
:10087000FE4F1182108232971183008326E0B5016A
:10088000A4014DDFFE01E15DFE4FD0828E010C5CC4
:100890001E4FF801F182E082329680829182A2821C
:1008A000B382CE01C4DFF801808191818F3FFFEFD9
:1008B0009F0789F061E081D160E0F8018081DF91DC
:1008C000CF911F910F91FF90EF90DF90BF90AF906D
:1008D0009F908F90ABC1DF91CF911F910F91FF90AF
:1008E000EF90DF90BF90AF909F908F900895FC01A4
:1008F00020E030E0708171110BC0F901EE0FFF1F95
:10090000E20FF31FE80FF91F6083528341830895BC
:100910002F5F3F4F33962A30310561F708950F93CB
:100920001F93CF93DF93EC01798368838B01000FD2
:10093000111F060F171F1B830A834C832D8350E062
:10094000FA01E057FF4FE491F0E0EE0FFF1FEC5586
:10095000FF4F859194919E878D87FA01E458FF4F50
:1009600044914F87C801BFD198878F83009741F08A
:10097000A80160E070E0DF91CF911F910F91F7C265
:10098000DF91CF911F910F910895CF93DF93EC01E9
:1009900061E08C8112D160E08C81DF91CF9146C102
:1009A000CF92DF92EF92FF920F931F93CF93DF933B
:1009B000CDB7DEB729970FB6F894DEBF0FBECDBF17
:1009C0008C01DC0117968D919C911897892B09F465
:1009D00088C067DDF801C184D284E384F4846C1993
:1009E0007D098E099F09623371058105910588F3A0
:1009F000F894828193819A8389830780F085E02D22
:100A00007F01BFEFEB1AFB0A80818987F80195818E
:100A10000584F685E02DD8011F968C9191FF28C0A2
:100A20009081982B98879081809589238F838F81DF
:100A30008E8388E08D83288539854D815E816F8125
:100A400089819A81D701208337FD522F4A9550839F
:100A5000562F39F0331F00C000006083000000C033
:100A6000F2CF48E03D9160830000019761F732C00A
:100A70009081982B98879081809589238F838F818F
:100A80008C8388E08B83288539854B815C816F81DD
:100A900089819A81D701208337FD522F00C000C081
:100AA000508300C000C000C000C000C060830000D0
:100AB000562F4A9541F0331F000000C000C000C00F
:100AC00000C000C0E8CF48E03D9100C0608300C096
:100AD000019709F77894E5DCF801618772878387CD
:100AE000948729960FB6F894DEBF0FBECDBFDF9175
:100AF000CF911F910F91FF90EF90DF90CF900895CD
:100B00000F931F93DC018D919C91119768177907C2
:100B100040F516968C911697882361F0489FA001A6
:100B20001124452F289F90011124232F089F800115
:100B30001124012FCB01880F991F860F971F17963D
:100B4000ED91FC911897E80FF91F15968C91DF0134
:100B5000129680FF03C02083418302C0408321831B
:100B60000C931F910F910895833081F028F4813008
:100B700099F08230A1F008958730A9F08830B9F05B
:100B80008430D1F4809180008F7D03C080918000FB
:100B90008F7780938000089584B58F7702C084B5E5
:100BA0008F7D84BD08958091B0008F7703C08091C0
:100BB000B0008F7D8093B0000895CF93DF9390E0D5
:100BC000FC01E458FF4F2491FC01E057FF4F849152
:100BD000882349F190E0880F991FFC01E255FF4FEF
:100BE000A591B4918C559F4FFC01C591D4919FB7AD
:100BF000611108C0F8948C91209582238C93888190
:100C000082230AC0623051F4F8948C91322F3095CF
:100C100083238C938881822B888304C0F8948C91E1
:100C2000822B8C939FBFDF91CF9108950F931F93D9
:100C3000CF93DF931F92CDB7DEB7282F30E0F901B5
:100C4000E859FF4F8491F901E458FF4F1491F901DD
:100C5000E057FF4F04910023C1F0882319F0698306
:100C600083DF6981E02FF0E0EE0FFF1FEC55FF4FAF
:100C7000A591B4919FB7F8948C91611103C0109520
:100C8000812301C0812B8C939FBF0F90DF91CF9167
:100C90001F910F910895A1E21A2EAA1BBB1BFD0103
:100CA0000DC0AA1FBB1FEE1FFF1FA217B307E4074B
:100CB000F50720F0A21BB30BE40BF50B661F771FA3
:100CC000881F991F1A9469F7609570958095909583
:100CD0009B01AC01BD01CF010895EE0FFF1F0590F0
:100CE000F491E02D0994CF93DF938230910510F4B5
:100CF00082E090E0E0912303F091240320E030E0D3
:100D0000A0E0B0E0309739F1408151814817590790
:100D1000B8F04817590771F482819381109729F030
:100D200013969C938E9312972CC0909324038093D8
:100D3000230327C02115310531F04217530718F05E
:100D4000A901DB0101C0EF019A01BD01DF010280B1
:100D5000F381E02DD7CF21153105F9F0281B390B90
:100D60002430310580F48A819B816115710521F061
:100D7000FB019383828304C0909324038093230315
:100D8000FE01329644C0FE01E20FF31F819391935E
:100D900022503109398328833AC0209121033091B0
:100DA0002203232B41F4209102013091030130935F
:100DB000220320932103209100013091010121158C
:100DC000310541F42DB73EB7409104015091050122
:100DD000241B350BE0912103F0912203E217F30766
:100DE000A0F42E1B3F0B2817390778F0AC014E5F9B
:100DF0005F4F2417350748F04E0F5F1F50932203B3
:100E0000409321038193919302C0E0E0F0E0CF0191
:100E1000DF91CF910895CF93DF93009709F487C0B6
:100E2000FC01329713821282C0912303D0912403D4
:100E3000209781F420813181280F391F809121036F
:100E4000909122038217930779F5F0932203E093A0
:100E500021036DC0DE0120E030E0AE17BF0750F483
:100E600012964D915C9113979D014115510509F121
:100E7000DA01F3CFB383A28340815181840F951FA0
:100E80008A179B0771F48D919C911197840F951F80
:100E900002969183808312968D919C9113979383F0
:100EA00082832115310529F4F0932403E093230371
:100EB0003EC0D9011396FC93EE9312974D915D912C
:100EC000A40FB51FEA17FB0779F480819181840F85
:100ED000951F0296D90111969C938E9382819381DE
:100EE00013969C938E931297E0E0F0E08A819B81A9
:100EF000009719F0FE01EC01F9CFCE01029628818E
:100F00003981820F931F20912103309122032817EA
:100F1000390769F4309729F41092240310922303BF
:100F200002C013821282D0932203C0932103DF9167
:100F3000CF910895FC0188279927E89421912032C8
:100F4000E9F3293010F02E30C8F32B3239F02D326E
:100F500031F4689403C012D0820F911D2191205367
:100F60002A30C8F31EF4909581959F4F0895DC01B7
:100F700001C06D9341505040E0F708957AE0979F8B
:100F8000902D879F802D910D11240895F894FFCF07
:100F9000000025032000010100000000002B03EFEA
:0A0FA00003AF02C802BA020A030000
:00000001FF
