:100000005CC000007FC000007DC000007BC000001D
:1000100079C0000077C0000075C0000073C0000008
:1000200071C000006FC000006DC000006BC0000018
:1000300069C0000067C0000065C0000063C0000028
:10004000A8C000005FC000007CC10000ACC100007F
:1000500059C0000057C0000055C0000053C0000048
:1000600051C000004FC00000000000080002010065
:100070000003040700000000000000000102040863
:100080001020408001020408102001020408102002
:10009000040404040404040402020202020203032E
:1000A0000303030300000000250028002B000000CC
:1000B0000000240027002A00010211241FBECFEFF8
:1000C000D8E0DEBFCDBF11E0A0E0B1E0EEE0FBE0A4
:1000D00002C005900D92A431B107D9F722E0A4E146
:1000E000B1E001C01D92A63FB207E1F710E0CAEBF4
:1000F000D0E003C02297FE0104D5C83BD107D1F759
:10010000C4D103C57DCFEF92FF920F931F9382E07E
:10011000E82EF12C0FE111E020E032EC41E050E05C
:10012000609102018CEB91E050D31F910F91FF90F1
:10013000EF9008951F93CF93DF93C0E0D0E016E9CE
:100140002091000130910101129FC001139F900D79
:100150001124C817D907CCF420911401309115014E
:1001600045E063E58CEB91E007D480911401909118
:1001700015010196909315018093140168EC70E0CD
:1001800080E090E073D02196DBCFDF91CF911F917B
:1001900008951F920F920FB60F9211242F933F9341
:1001A0008F939F93AF93BF93809117019091180104
:1001B000A0911901B0911A013091160123E0230F8B
:1001C0002D3720F40196A11DB11D05C026E8230F8F
:1001D0000296A11DB11D20931601809317019093E3
:1001E0001801A0931901B0931A0180911B019091FD
:1001F0001C01A0911D01B0911E010196A11DB11D10
:1002000080931B0190931C01A0931D01B0931E01CC
:10021000BF91AF919F918F913F912F910F900FBE02
:100220000F901F9018953FB7F89480911B01909103
:100230001C01A0911D01B0911E0126B5A89B05C00F
:100240002F3F19F00196A11DB11D3FBF6627782FE2
:10025000892F9A2F620F711D811D911D42E0660F3B
:10026000771F881F991F4A95D1F70895CF92DF9283
:10027000EF92FF92CF93DF936B017C01D4DFEB0110
:10028000C114D104E104F10479F009D1CCDF6C1B75
:100290007D0B683E7340A0F381E0C81AD108E108E5
:1002A000F108C851DC4FECCFDF91CF91FF90EF9078
:1002B000DF90CF9008950197009739F0880F991F2C
:1002C000880F991F02970197F1F70895789484B5E4
:1002D000826084BD84B5816084BD85B5826085BD42
:1002E00085B5816085BDEEE6F0E080818160808328
:1002F000E1E8F0E01082808182608083808181600B
:100300008083E0E8F0E0808181608083E1EBF0E0D1
:10031000808184608083E0EBF0E080818160808375
:10032000EAE7F0E08081846080838081826080835E
:100330008081816080838081806880831092C10089
:1003400008951F920F920FB60F9211242F938F933F
:100350009F93EF93FF93E0912F01F0913001808103
:10036000E0913501F091360182FD12C090818091BB
:1003700038018F5F8F7320913901821751F0E0911E
:100380003801F0E0E15EFE4F958F8093380101C0A7
:100390008081FF91EF919F918F912F910F900FBED0
:1003A0000F901F9018951F920F920FB60F92112465
:1003B0002F933F934F935F936F937F938F939F936D
:1003C000AF93BF93EF93FF938FE191E0A3D0FF91A1
:1003D000EF91BF91AF919F918F917F916F915F91BD
:1003E0004F913F912F910F900FBE0F901F90189536
:1003F0008FE191E055D021E0892B09F420E0822F94
:100400000895109222011092210188EE93E0A0E05D
:10041000B0E08093230190932401A0932501B09331
:10042000260188E091E09093200180931F0185ECE4
:1004300090E090932C0180932B0184EC90E09093BA
:100440002E0180932D0180EC90E0909330018093F9
:100450002F0181EC90E0909332018093310182EC86
:1004600090E0909334018093330186EC90E0909378
:1004700036018093350110923801109239011092A3
:100480003A0110923B010895089520DFFDDF3BDE25
:10049000CDE7D2E04FDE2097E9F32FD0FBCF0895D0
:1004A000FC01818D228D90E0805C9F4F821B910921
:1004B0008F7399270895FC01918D828D981731F0E3
:1004C000828DE80FF11D858D90E008958FEF9FEFED
:1004D0000895FC01918D828D981761F0828DDF0166
:1004E000A80FB11D5D968C91928D9F5F9F73928F27
:1004F00090E008958FEF9FEF089588EF91E0892BAA
:1005000041F080E090E0892B21F072DF81110C94A2
:1005100000000895FC01848DDF01A80FB11DA35ACE
:10052000BF4F2C91848D90E001968F739927848F13
:10053000A689B7892C93A089B1898C9180648C930A
:10054000938D848D981306C00288F389E02D8081F5
:100550008F7D80830895CF93DF93EC01888D88236E
:10056000C1F0EA89FB89808185FD05C0A889B98928
:100570008C9186FD0EC00FB607FCF5CF808185FFFC
:10058000F2CFA889B9898C9185FFEDCFCE01C2DF6A
:10059000E8CFDF91CF910895CF92DF92FF920F9332
:1005A0001F93CF93DF931F92CDB7DEB76C01DC01B1
:1005B0005B969C915B975C968C915C97981307C0B7
:1005C0005096ED91FC915197808185FD31C0F601E7
:1005D000038D10E00F5F1F4F0F731127F02EF601F0
:1005E000848DF81210C00FB607FCF9CFD6015096D3
:1005F000ED91FC915197808185FFF1CFC601698310
:1006000089DF6981ECCF838DE80FF11DE35AFF4F3D
:100610006083D6015B960C935B975296ED91FC91AB
:10062000539780818062808381E058968C930DC0BF
:10063000D6015696ED91FC91579760835096ED91B7
:10064000FC91519780818064808381E090E00F90DD
:10065000DF91CF911F910F91FF90DF90CF90089580
:10066000BF92CF92DF92EF92FF92CF93DF93EC0194
:100670006A017B01B22EE889F98982E08083411505
:1006800081EE58076105710599F060E079E08DE32E
:1006900090E0A701960111D2215031094109510979
:1006A0005695479537952795211580E1380790F0A5
:1006B000E889F989108260E874E88EE190E0A7018A
:1006C0009601FBD1215031094109510956954795B1
:1006D00037952795EC85FD853083EE85FF85208352
:1006E000188EEC89FD89B082EA89FB89808180615E
:1006F0008083EA89FB89808188608083EA89FB891D
:10070000808180688083EA89FB8980818F7D8083F6
:10071000DF91CF91FF90EF90DF90CF90BF90089541
:10072000CF92DF92EF92FF920F931F93CF93DF93BD
:100730006C017A01EB01E60EF71E00E010E0CE1529
:10074000DF0561F06991D601ED91FC910190F08196
:10075000E02DC6010995080F191FF1CFC801DF91DF
:10076000CF911F910F91FF90EF90DF90CF90089560
:10077000805D9E4FDC018D919C91009739F0DC01EA
:10078000ED91FC910284F385E02D09940895805D3C
:100790009E4FDC018D919C91009739F0DC01ED9129
:1007A000FC910190F081E02D09940895FC01ED5D2C
:1007B000FE4F10823196108232961082319710824D
:1007C000349610823196108208958F929F92AF9244
:1007D000BF92DF92EF92FF920F931F93CF93DF931D
:1007E000EC01D62E49015A01C801FE01EE5CFE4F14
:1007F0001182108232971183008326E0B501A40193
:100800002FDFFE01E15DFE4FD0828E010C5C1E4F9A
:10081000F801F182E082329680829182A282B382D4
:10082000CE01C4DFF801808191818F3FFFEF9F07E8
:1008300089F061E0D4D060E0F8018081DF91CF9150
:100840001F910F91FF90EF90DF90BF90AF909F901E
:100850008F90FEC0DF91CF911F910F91FF90EF908D
:10086000DF90BF90AF909F908F900895FC01EC5C5B
:10087000FE4F208131812F3F3F4F09F079CF0895FE
:100880008C5C9E4FFC01808191818F3FFFEF9F0721
:1008900029F061E0DDD085E090E00DCD08958C5C1D
:1008A0009E4FFC01808191818F3FFFEF9F0711F0E8
:1008B00060E0CEC00895BF92CF92DF92EF92FF9298
:1008C0000F931F93CF93DF93EC01162FD42EC22EDC
:1008D000D7DF61E0CE015BDF6D2DCE0158DF612FE8
:1008E000CE0155DFFE01E15DFE4F10816C2DCE0182
:1008F0004EDF602FCE014BDF100F1C0D1D0D62E08F
:10090000CE0145DFBE2C67018C2D8B19801750F46A
:100910007601F60161916F01CE0139DFF701808127
:10092000180FF2CF63E0CE0132DF612FCE012FDF4F
:1009300064E0CE012CDFCE0199DFCE01B0DF81E093
:10094000DF91CF911F910F91FF90EF90DF90CF90AB
:10095000BF900895EF92FF920F931F937801FC01CF
:10096000E15DFE4F022F242F462F6081A4DF1F91EF
:100970000F91FF90EF9008950F931F938901242FFB
:10098000462F60E0E7DF1F910F910895833081F0DB
:1009900028F4813099F08230A1F008958730A9F0D1
:1009A0008830B9F08430D1F4809180008F7D03C00D
:1009B000809180008F7780938000089584B58F7731
:1009C00002C084B58F7D84BD08958091B0008F777B
:1009D00003C08091B0008F7D8093B0000895CF93C5
:1009E000DF9390E0FC01E458FF4F2491FC01E057B5
:1009F000FF4F8491882349F190E0880F991FFC01F3
:100A0000E255FF4FA591B4918C559F4FFC01C591C4
:100A1000D4919FB7611108C0F8948C9120958223DE
:100A20008C93888182230AC0623051F4F8948C91AF
:100A3000322F309583238C938881822B888304C046
:100A4000F8948C91822B8C939FBFDF91CF91089566
:100A50000F931F93CF93DF931F92CDB7DEB7282F4D
:100A600030E0F901E859FF4F8491F901E458FF4F54
:100A70001491F901E057FF4F04910023C1F088233E
:100A800019F0698383DF6981E02FF0E0EE0FFF1F2B
:100A9000EC55FF4FA591B4919FB7F8948C916111DB
:100AA00003C01095812301C0812B8C939FBF0F90B1
:100AB000DF91CF911F910F910895A1E21A2EAA1BE9
:100AC000BB1BFD010DC0AA1FBB1FEE1FFF1FA217FE
:100AD000B307E407F50720F0A21BB30BE40BF50BFB
:100AE000661F771F881F991F1A9469F76095709584
:100AF000809590959B01AC01BD01CF010895EE0F4B
:0E0B0000FF1F0590F491E02D0994F894FFCFAB
:100B0E000200050000000000CC02900350026902B2
:040B1E005B02AB02C9
:00000001FF
